{
  "address": "0xe7f1725E7734CE288F8367e1Bb143E90bb3F0512",
  "abi": [
    {
      "inputs": [
        {
          "internalType": "address",
          "name": "priceFeedAddress",
          "type": "address"
        }
      ],
      "stateMutability": "nonpayable",
      "type": "constructor"
    },
    {
      "inputs": [
        {
          "internalType": "address",
          "name": "",
          "type": "address"
        }
      ],
      "name": "addressToAmountFunded",
      "outputs": [
        {
          "internalType": "uint256",
          "name": "",
          "type": "uint256"
        }
      ],
      "stateMutability": "view",
      "type": "function"
    },
    {
      "inputs": [],
      "name": "fund",
      "outputs": [],
      "stateMutability": "payable",
      "type": "function"
    },
    {
      "inputs": [
        {
          "internalType": "uint256",
          "name": "",
          "type": "uint256"
        }
      ],
      "name": "funders",
      "outputs": [
        {
          "internalType": "address",
          "name": "",
          "type": "address"
        }
      ],
      "stateMutability": "view",
      "type": "function"
    },
    {
      "inputs": [],
      "name": "minimumUsd",
      "outputs": [
        {
          "internalType": "uint256",
          "name": "",
          "type": "uint256"
        }
      ],
      "stateMutability": "view",
      "type": "function"
    },
    {
      "inputs": [],
      "name": "owner",
      "outputs": [
        {
          "internalType": "address",
          "name": "",
          "type": "address"
        }
      ],
      "stateMutability": "view",
      "type": "function"
    },
    {
      "inputs": [],
      "name": "priceFeed",
      "outputs": [
        {
          "internalType": "contract AggregatorV3Interface",
          "name": "",
          "type": "address"
        }
      ],
      "stateMutability": "view",
      "type": "function"
    },
    {
      "inputs": [],
      "name": "withdraw",
      "outputs": [],
      "stateMutability": "nonpayable",
      "type": "function"
    }
  ],
  "transactionHash": "0x0fca2b228426c2c725e8dd30f72915c7bad58fefd1296bb7de309543cbeeff2b",
  "args": [
    "0x5FbDB2315678afecb367f032d93F642f64180aa3"
  ],
  "numDeployments": 1,
  "solcInputHash": "3aa0d0ca480aadc873f38ec9ac22f380",
  "bytecode": "0x60806040526802b5e3af16b188000060005534801561001d57600080fd5b50604051610f4a380380610f4a833981810160405281019061003f91906100dc565b33600360006101000a81548173ffffffffffffffffffffffffffffffffffffffff021916908373ffffffffffffffffffffffffffffffffffffffff16021790555080600460006101000a81548173ffffffffffffffffffffffffffffffffffffffff021916908373ffffffffffffffffffffffffffffffffffffffff1602179055505061014e565b6000815190506100d681610137565b92915050565b6000602082840312156100ee57600080fd5b60006100fc848285016100c7565b91505092915050565b600061011082610117565b9050919050565b600073ffffffffffffffffffffffffffffffffffffffff82169050919050565b61014081610105565b811461014b57600080fd5b50565b610ded8061015d6000396000f3fe6080604052600436106100705760003560e01c8063741bef1a1161004e578063741bef1a146100f45780638da5cb5b1461011f578063b60d42881461014a578063dc0d3dff1461015457610070565b8063098de820146100755780633ccfd60b146100a05780633e47d6f3146100b7575b600080fd5b34801561008157600080fd5b5061008a610191565b6040516100979190610a5b565b60405180910390f35b3480156100ac57600080fd5b506100b5610197565b005b3480156100c357600080fd5b506100de60048036038101906100d991906107e0565b61042f565b6040516100eb9190610a5b565b60405180910390f35b34801561010057600080fd5b50610109610447565b60405161011691906109e0565b60405180910390f35b34801561012b57600080fd5b5061013461046d565b60405161014191906109c5565b60405180910390f35b610152610493565b005b34801561016057600080fd5b5061017b60048036038101906101769190610809565b6105b5565b60405161018891906109c5565b60405180910390f35b60005481565b600360009054906101000a900473ffffffffffffffffffffffffffffffffffffffff1673ffffffffffffffffffffffffffffffffffffffff163373ffffffffffffffffffffffffffffffffffffffff1614610227576040517f08c379a000000000000000000000000000000000000000000000000000000000815260040161021e90610a3b565b60405180910390fd5b60005b6001805490508111156102f957600060018281548110610273577f4e487b7100000000000000000000000000000000000000000000000000000000600052603260045260246000fd5b9060005260206000200160009054906101000a900473ffffffffffffffffffffffffffffffffffffffff1690506000600260008373ffffffffffffffffffffffffffffffffffffffff1673ffffffffffffffffffffffffffffffffffffffff168152602001908152602001600020819055505080806102f190610cb4565b91505061022a565b50600067ffffffffffffffff81111561033b577f4e487b7100000000000000000000000000000000000000000000000000000000600052604160045260246000fd5b6040519080825280602002602001820160405280156103695781602001602082028036833780820191505090505b506001908051906020019061037f9291906106d0565b5060003373ffffffffffffffffffffffffffffffffffffffff16476040516103a6906109b0565b60006040518083038185875af1925050503d80600081146103e3576040519150601f19603f3d011682016040523d82523d6000602084013e6103e8565b606091505b505090508061042c576040517f08c379a0000000000000000000000000000000000000000000000000000000008152600401610423906109fb565b60405180910390fd5b50565b60026020528060005260406000206000915090505481565b600460009054906101000a900473ffffffffffffffffffffffffffffffffffffffff1681565b600360009054906101000a900473ffffffffffffffffffffffffffffffffffffffff1681565b6000546104cb600460009054906101000a900473ffffffffffffffffffffffffffffffffffffffff16346105f490919063ffffffff16565b101561050c576040517f08c379a000000000000000000000000000000000000000000000000000000000815260040161050390610a1b565b60405180910390fd5b6001339080600181540180825580915050600190039060005260206000200160009091909190916101000a81548173ffffffffffffffffffffffffffffffffffffffff021916908373ffffffffffffffffffffffffffffffffffffffff16021790555034600260003373ffffffffffffffffffffffffffffffffffffffff1673ffffffffffffffffffffffffffffffffffffffff16815260200190815260200160002081905550565b600181815481106105c557600080fd5b906000526020600020016000915054906101000a900473ffffffffffffffffffffffffffffffffffffffff1681565b60008061060083610630565b90506000670de0b6b3a764000085836106199190610bda565b6106239190610a92565b9050809250505092915050565b6000808273ffffffffffffffffffffffffffffffffffffffff1663feaf968c6040518163ffffffff1660e01b815260040160a06040518083038186803b15801561067957600080fd5b505afa15801561068d573d6000803e3d6000fd5b505050506040513d601f19601f820116820180604052508101906106b19190610832565b5050509150506402540be400816106c89190610ac3565b915050919050565b828054828255906000526020600020908101928215610749579160200282015b828111156107485782518260006101000a81548173ffffffffffffffffffffffffffffffffffffffff021916908373ffffffffffffffffffffffffffffffffffffffff160217905550916020019190600101906106f0565b5b509050610756919061075a565b5090565b5b8082111561077357600081600090555060010161075b565b5090565b60008135905061078681610d5b565b92915050565b60008151905061079b81610d72565b92915050565b6000813590506107b081610d89565b92915050565b6000815190506107c581610d89565b92915050565b6000815190506107da81610da0565b92915050565b6000602082840312156107f257600080fd5b600061080084828501610777565b91505092915050565b60006020828403121561081b57600080fd5b6000610829848285016107a1565b91505092915050565b600080600080600060a0868803121561084a57600080fd5b6000610858888289016107cb565b95505060206108698882890161078c565b945050604061087a888289016107b6565b935050606061088b888289016107b6565b925050608061089c888289016107cb565b9150509295509295909350565b6108b281610c34565b82525050565b6108c181610c90565b82525050565b60006108d4600083610a76565b9150600082019050919050565b60006108ee600b83610a81565b91507f43616c6c204661696c65640000000000000000000000000000000000000000006000830152602082019050919050565b600061092e601383610a81565b91507f4469646e27742073656e6420656e6f75676821000000000000000000000000006000830152602082019050919050565b600061096e601483610a81565b91507f53656e646572206973206e6f74206f776e6572210000000000000000000000006000830152602082019050919050565b6109aa81610c70565b82525050565b60006109bb826108c7565b9150819050919050565b60006020820190506109da60008301846108a9565b92915050565b60006020820190506109f560008301846108b8565b92915050565b60006020820190508181036000830152610a14816108e1565b9050919050565b60006020820190508181036000830152610a3481610921565b9050919050565b60006020820190508181036000830152610a5481610961565b9050919050565b6000602082019050610a7060008301846109a1565b92915050565b600081905092915050565b600082825260208201905092915050565b6000610a9d82610c70565b9150610aa883610c70565b925082610ab857610ab7610d2c565b5b828204905092915050565b6000610ace82610c46565b9150610ad983610c46565b9250827f7fffffffffffffffffffffffffffffffffffffffffffffffffffffffffffffff0482116000841360008413161615610b1857610b17610cfd565b5b817f80000000000000000000000000000000000000000000000000000000000000000583126000841260008413161615610b5557610b54610cfd565b5b827f80000000000000000000000000000000000000000000000000000000000000000582126000841360008412161615610b9257610b91610cfd565b5b827f7fffffffffffffffffffffffffffffffffffffffffffffffffffffffffffffff0582126000841260008412161615610bcf57610bce610cfd565b5b828202905092915050565b6000610be582610c70565b9150610bf083610c70565b9250817fffffffffffffffffffffffffffffffffffffffffffffffffffffffffffffffff0483118215151615610c2957610c28610cfd565b5b828202905092915050565b6000610c3f82610c50565b9050919050565b6000819050919050565b600073ffffffffffffffffffffffffffffffffffffffff82169050919050565b6000819050919050565b600069ffffffffffffffffffff82169050919050565b6000610c9b82610ca2565b9050919050565b6000610cad82610c50565b9050919050565b6000610cbf82610c70565b91507fffffffffffffffffffffffffffffffffffffffffffffffffffffffffffffffff821415610cf257610cf1610cfd565b5b600182019050919050565b7f4e487b7100000000000000000000000000000000000000000000000000000000600052601160045260246000fd5b7f4e487b7100000000000000000000000000000000000000000000000000000000600052601260045260246000fd5b610d6481610c34565b8114610d6f57600080fd5b50565b610d7b81610c46565b8114610d8657600080fd5b50565b610d9281610c70565b8114610d9d57600080fd5b50565b610da981610c7a565b8114610db457600080fd5b5056fea26469706673582212201fb64cec502856d191fd79d0fb88eb0a6faabb758303146f40700d9e64e4a44564736f6c63430008000033",
  "devdoc": {
    "kind": "dev",
    "methods": {},
    "version": 1
  },
  "userdoc": {
    "kind": "user",
    "methods": {},
    "version": 1
  },
  "storageLayout": {
    "storage": [
      {
        "astId": 56,
        "contract": "contracts/FundMe.sol:FundMe",
        "label": "minimumUsd",
        "offset": 0,
        "slot": "0",
        "type": "t_uint256"
      },
      {
        "astId": 59,
        "contract": "contracts/FundMe.sol:FundMe",
        "label": "funders",
        "offset": 0,
        "slot": "1",
        "type": "t_array(t_address)dyn_storage"
      },
      {
        "astId": 63,
        "contract": "contracts/FundMe.sol:FundMe",
        "label": "addressToAmountFunded",
        "offset": 0,
        "slot": "2",
        "type": "t_mapping(t_address,t_uint256)"
      },
      {
        "astId": 65,
        "contract": "contracts/FundMe.sol:FundMe",
        "label": "owner",
        "offset": 0,
        "slot": "3",
        "type": "t_address"
      },
      {
        "astId": 68,
        "contract": "contracts/FundMe.sol:FundMe",
        "label": "priceFeed",
        "offset": 0,
        "slot": "4",
        "type": "t_contract(AggregatorV3Interface)45"
      }
    ],
    "types": {
      "t_address": {
        "encoding": "inplace",
        "label": "address",
        "numberOfBytes": "20"
      },
      "t_array(t_address)dyn_storage": {
        "base": "t_address",
        "encoding": "dynamic_array",
        "label": "address[]",
        "numberOfBytes": "32"
      },
      "t_contract(AggregatorV3Interface)45": {
        "encoding": "inplace",
        "label": "contract AggregatorV3Interface",
        "numberOfBytes": "20"
      },
      "t_mapping(t_address,t_uint256)": {
        "encoding": "mapping",
        "key": "t_address",
        "label": "mapping(address => uint256)",
        "numberOfBytes": "32",
        "value": "t_uint256"
      },
      "t_uint256": {
        "encoding": "inplace",
        "label": "uint256",
        "numberOfBytes": "32"
      }
    }
  }
}