{
  "address": "0x2E983A1Ba5e8b38AAAeC4B440B9dDcFBf72E15d1",
  "abi": [
    {
      "inputs": [
        {
          "internalType": "address",
          "name": "priceFeedAddress",
          "type": "address"
        }
      ],
      "stateMutability": "nonpayable",
      "type": "constructor"
    },
    {
      "inputs": [],
      "name": "FundMe__Noti_Owner",
      "type": "error"
    },
    {
      "inputs": [],
      "name": "cheaperWithdraw",
      "outputs": [],
      "stateMutability": "payable",
      "type": "function"
    },
    {
      "inputs": [],
      "name": "fund",
      "outputs": [],
      "stateMutability": "payable",
      "type": "function"
    },
    {
      "inputs": [
        {
          "internalType": "address",
          "name": "funder",
          "type": "address"
        }
      ],
      "name": "getAddressToAmountFunded",
      "outputs": [
        {
          "internalType": "uint256",
          "name": "",
          "type": "uint256"
        }
      ],
      "stateMutability": "view",
      "type": "function"
    },
    {
      "inputs": [
        {
          "internalType": "uint256",
          "name": "index",
          "type": "uint256"
        }
      ],
      "name": "getFunder",
      "outputs": [
        {
          "internalType": "address",
          "name": "",
          "type": "address"
        }
      ],
      "stateMutability": "view",
      "type": "function"
    },
    {
      "inputs": [],
      "name": "getOwner",
      "outputs": [
        {
          "internalType": "address",
          "name": "",
          "type": "address"
        }
      ],
      "stateMutability": "view",
      "type": "function"
    },
    {
      "inputs": [],
      "name": "getPriceFeed",
      "outputs": [
        {
          "internalType": "contract AggregatorV3Interface",
          "name": "",
          "type": "address"
        }
      ],
      "stateMutability": "view",
      "type": "function"
    },
    {
      "inputs": [],
      "name": "minimumUsd",
      "outputs": [
        {
          "internalType": "uint256",
          "name": "",
          "type": "uint256"
        }
      ],
      "stateMutability": "view",
      "type": "function"
    },
    {
      "inputs": [],
      "name": "withdraw",
      "outputs": [],
      "stateMutability": "nonpayable",
      "type": "function"
    }
  ],
  "transactionHash": "0x61c354576b7460108fbf473f81f7fb2816822ad8516ddd308ce115b867f5c869",
  "args": [
    "0x663F3ad617193148711d28f5334eE4Ed07016602"
  ],
  "numDeployments": 1,
  "solcInputHash": "d6a631083105017e7b984838ab61249c",
  "bytecode": "0x60806040526802b5e3af16b18800006000553480156200001e57600080fd5b506040516200155538038062001555833981810160405281019062000044919062000137565b33600360006101000a81548173ffffffffffffffffffffffffffffffffffffffff021916908373ffffffffffffffffffffffffffffffffffffffff16021790555080600460006101000a81548173ffffffffffffffffffffffffffffffffffffffff021916908373ffffffffffffffffffffffffffffffffffffffff1602179055505062000169565b600080fd5b600073ffffffffffffffffffffffffffffffffffffffff82169050919050565b6000620000ff82620000d2565b9050919050565b6200011181620000f2565b81146200011d57600080fd5b50565b600081519050620001318162000106565b92915050565b60006020828403121562000150576200014f620000cd565b5b6000620001608482850162000120565b91505092915050565b6113dc80620001796000396000f3fe60806040526004361061007b5760003560e01c80639e87a5cd1161004e5780639e87a5cd1461012a578063b60d428814610155578063be2693f01461015f578063d7b4750c146101695761007b565b80630343fb2514610080578063098de820146100bd5780633ccfd60b146100e8578063893d20e8146100ff575b600080fd5b34801561008c57600080fd5b506100a760048036038101906100a29190610c82565b6101a6565b6040516100b49190610cc8565b60405180910390f35b3480156100c957600080fd5b506100d26101ef565b6040516100df9190610cc8565b60405180910390f35b3480156100f457600080fd5b506100fd6101f5565b005b34801561010b57600080fd5b506101146104b6565b6040516101219190610cf2565b60405180910390f35b34801561013657600080fd5b5061013f6104e0565b60405161014c9190610d6c565b60405180910390f35b61015d61050a565b005b61016761062c565b005b34801561017557600080fd5b50610190600480360381019061018b9190610db3565b6108f3565b60405161019d9190610cf2565b60405180910390f35b6000600260008373ffffffffffffffffffffffffffffffffffffffff1673ffffffffffffffffffffffffffffffffffffffff168152602001908152602001600020549050919050565b60005481565b600360009054906101000a900473ffffffffffffffffffffffffffffffffffffffff1673ffffffffffffffffffffffffffffffffffffffff163373ffffffffffffffffffffffffffffffffffffffff161461027c576040517f015a16b400000000000000000000000000000000000000000000000000000000815260040160405180910390fd5b6102bb6040518060400160405280601681526020017f57697468647261772063616c6c656420627920203a20000000000000000000008152503361093b565b6102fa6040518060400160405280601581526020017f42616c616e63652077697468647261776e20203a200000000000000000000000815250476109d7565b60005b6001805490508111156103a6576000600182815481106103205761031f610de0565b5b9060005260206000200160009054906101000a900473ffffffffffffffffffffffffffffffffffffffff1690506000600260008373ffffffffffffffffffffffffffffffffffffffff1673ffffffffffffffffffffffffffffffffffffffff1681526020019081526020016000208190555050808061039e90610e3e565b9150506102fd565b50600067ffffffffffffffff8111156103c2576103c1610e87565b5b6040519080825280602002602001820160405280156103f05781602001602082028036833780820191505090505b5060019080519060200190610406929190610b78565b5060003373ffffffffffffffffffffffffffffffffffffffff164760405161042d90610ee7565b60006040518083038185875af1925050503d806000811461046a576040519150601f19603f3d011682016040523d82523d6000602084013e61046f565b606091505b50509050806104b3576040517f08c379a00000000000000000000000000000000000000000000000000000000081526004016104aa90610f59565b60405180910390fd5b50565b6000600360009054906101000a900473ffffffffffffffffffffffffffffffffffffffff16905090565b6000600460009054906101000a900473ffffffffffffffffffffffffffffffffffffffff16905090565b600054610542600460009054906101000a900473ffffffffffffffffffffffffffffffffffffffff1634610a7390919063ffffffff16565b1015610583576040517f08c379a000000000000000000000000000000000000000000000000000000000815260040161057a90610fc5565b60405180910390fd5b6001339080600181540180825580915050600190039060005260206000200160009091909190916101000a81548173ffffffffffffffffffffffffffffffffffffffff021916908373ffffffffffffffffffffffffffffffffffffffff16021790555034600260003373ffffffffffffffffffffffffffffffffffffffff1673ffffffffffffffffffffffffffffffffffffffff16815260200190815260200160002081905550565b600360009054906101000a900473ffffffffffffffffffffffffffffffffffffffff1673ffffffffffffffffffffffffffffffffffffffff163373ffffffffffffffffffffffffffffffffffffffff16146106b3576040517f015a16b400000000000000000000000000000000000000000000000000000000815260040160405180910390fd5b6000600180548060200260200160405190810160405280929190818152602001828054801561073757602002820191906000526020600020905b8160009054906101000a900473ffffffffffffffffffffffffffffffffffffffff1673ffffffffffffffffffffffffffffffffffffffff16815260200190600101908083116106ed575b5050505050905060005b81518110156107c057600082828151811061075f5761075e610de0565b5b602002602001015190506000600260008373ffffffffffffffffffffffffffffffffffffffff1673ffffffffffffffffffffffffffffffffffffffff1681526020019081526020016000208190555050806107b990610e3e565b9050610741565b50600067ffffffffffffffff8111156107dc576107db610e87565b5b60405190808252806020026020018201604052801561080a5781602001602082028036833780820191505090505b5060019080519060200190610820929190610b78565b506000600360009054906101000a900473ffffffffffffffffffffffffffffffffffffffff1673ffffffffffffffffffffffffffffffffffffffff164760405161086990610ee7565b60006040518083038185875af1925050503d80600081146108a6576040519150601f19603f3d011682016040523d82523d6000602084013e6108ab565b606091505b50509050806108ef576040517f08c379a00000000000000000000000000000000000000000000000000000000081526004016108e690610f59565b60405180910390fd5b5050565b60006001828154811061090957610908610de0565b5b9060005260206000200160009054906101000a900473ffffffffffffffffffffffffffffffffffffffff169050919050565b6109d3828260405160240161095192919061106d565b6040516020818303038152906040527f319af333000000000000000000000000000000000000000000000000000000007bffffffffffffffffffffffffffffffffffffffffffffffffffffffff19166020820180517bffffffffffffffffffffffffffffffffffffffffffffffffffffffff8381831617835250505050610aaf565b5050565b610a6f82826040516024016109ed92919061109d565b6040516020818303038152906040527f9710a9d0000000000000000000000000000000000000000000000000000000007bffffffffffffffffffffffffffffffffffffffffffffffffffffffff19166020820180517bffffffffffffffffffffffffffffffffffffffffffffffffffffffff8381831617835250505050610aaf565b5050565b600080610a7f83610ad8565b90506000670de0b6b3a76400008583610a9891906110cd565b610aa29190611156565b9050809250505092915050565b60008151905060006a636f6e736f6c652e6c6f679050602083016000808483855afa5050505050565b6000808273ffffffffffffffffffffffffffffffffffffffff1663feaf968c6040518163ffffffff1660e01b815260040160a06040518083038186803b158015610b2157600080fd5b505afa158015610b35573d6000803e3d6000fd5b505050506040513d601f19601f82011682018060405250810190610b599190611214565b5050509150506402540be40081610b70919061128f565b915050919050565b828054828255906000526020600020908101928215610bf1579160200282015b82811115610bf05782518260006101000a81548173ffffffffffffffffffffffffffffffffffffffff021916908373ffffffffffffffffffffffffffffffffffffffff16021790555091602001919060010190610b98565b5b509050610bfe9190610c02565b5090565b5b80821115610c1b576000816000905550600101610c03565b5090565b600080fd5b600073ffffffffffffffffffffffffffffffffffffffff82169050919050565b6000610c4f82610c24565b9050919050565b610c5f81610c44565b8114610c6a57600080fd5b50565b600081359050610c7c81610c56565b92915050565b600060208284031215610c9857610c97610c1f565b5b6000610ca684828501610c6d565b91505092915050565b6000819050919050565b610cc281610caf565b82525050565b6000602082019050610cdd6000830184610cb9565b92915050565b610cec81610c44565b82525050565b6000602082019050610d076000830184610ce3565b92915050565b6000819050919050565b6000610d32610d2d610d2884610c24565b610d0d565b610c24565b9050919050565b6000610d4482610d17565b9050919050565b6000610d5682610d39565b9050919050565b610d6681610d4b565b82525050565b6000602082019050610d816000830184610d5d565b92915050565b610d9081610caf565b8114610d9b57600080fd5b50565b600081359050610dad81610d87565b92915050565b600060208284031215610dc957610dc8610c1f565b5b6000610dd784828501610d9e565b91505092915050565b7f4e487b7100000000000000000000000000000000000000000000000000000000600052603260045260246000fd5b7f4e487b7100000000000000000000000000000000000000000000000000000000600052601160045260246000fd5b6000610e4982610caf565b91507fffffffffffffffffffffffffffffffffffffffffffffffffffffffffffffffff821415610e7c57610e7b610e0f565b5b600182019050919050565b7f4e487b7100000000000000000000000000000000000000000000000000000000600052604160045260246000fd5b600081905092915050565b50565b6000610ed1600083610eb6565b9150610edc82610ec1565b600082019050919050565b6000610ef282610ec4565b9150819050919050565b600082825260208201905092915050565b7f43616c6c204661696c6564000000000000000000000000000000000000000000600082015250565b6000610f43600b83610efc565b9150610f4e82610f0d565b602082019050919050565b60006020820190508181036000830152610f7281610f36565b9050919050565b7f4469646e27742073656e6420656e6f7567682100000000000000000000000000600082015250565b6000610faf601383610efc565b9150610fba82610f79565b602082019050919050565b60006020820190508181036000830152610fde81610fa2565b9050919050565b600081519050919050565b60005b8381101561100e578082015181840152602081019050610ff3565b8381111561101d576000848401525b50505050565b6000601f19601f8301169050919050565b600061103f82610fe5565b6110498185610efc565b9350611059818560208601610ff0565b61106281611023565b840191505092915050565b600060408201905081810360008301526110878185611034565b90506110966020830184610ce3565b9392505050565b600060408201905081810360008301526110b78185611034565b90506110c66020830184610cb9565b9392505050565b60006110d882610caf565b91506110e383610caf565b9250817fffffffffffffffffffffffffffffffffffffffffffffffffffffffffffffffff048311821515161561111c5761111b610e0f565b5b828202905092915050565b7f4e487b7100000000000000000000000000000000000000000000000000000000600052601260045260246000fd5b600061116182610caf565b915061116c83610caf565b92508261117c5761117b611127565b5b828204905092915050565b600069ffffffffffffffffffff82169050919050565b6111a681611187565b81146111b157600080fd5b50565b6000815190506111c38161119d565b92915050565b6000819050919050565b6111dc816111c9565b81146111e757600080fd5b50565b6000815190506111f9816111d3565b92915050565b60008151905061120e81610d87565b92915050565b600080600080600060a086880312156112305761122f610c1f565b5b600061123e888289016111b4565b955050602061124f888289016111ea565b9450506040611260888289016111ff565b9350506060611271888289016111ff565b9250506080611282888289016111b4565b9150509295509295909350565b600061129a826111c9565b91506112a5836111c9565b9250827f7fffffffffffffffffffffffffffffffffffffffffffffffffffffffffffffff04821160008413600084131616156112e4576112e3610e0f565b5b817f8000000000000000000000000000000000000000000000000000000000000000058312600084126000841316161561132157611320610e0f565b5b827f8000000000000000000000000000000000000000000000000000000000000000058212600084136000841216161561135e5761135d610e0f565b5b827f7fffffffffffffffffffffffffffffffffffffffffffffffffffffffffffffff058212600084126000841216161561139b5761139a610e0f565b5b82820290509291505056fea26469706673582212203ebb0e12188be17498b84738b12273ec7f1197e6fdf0dec25c5f054e69de7bcb64736f6c63430008080033",
  "devdoc": {
    "author": "Kunal Sangtiani",
    "details": "This implements s_priceFeeds as our library",
    "kind": "dev",
    "methods": {},
    "title": "A contract for crowd funding",
    "version": 1
  },
  "userdoc": {
    "kind": "user",
    "methods": {},
    "notice": "This contract is  to demo a sample crowd funding!",
    "version": 1
  },
  "storageLayout": {
    "storage": [
      {
        "astId": 61,
        "contract": "contracts/FundMe.sol:FundMe",
        "label": "minimumUsd",
        "offset": 0,
        "slot": "0",
        "type": "t_uint256"
      },
      {
        "astId": 64,
        "contract": "contracts/FundMe.sol:FundMe",
        "label": "s_funders",
        "offset": 0,
        "slot": "1",
        "type": "t_array(t_address)dyn_storage"
      },
      {
        "astId": 68,
        "contract": "contracts/FundMe.sol:FundMe",
        "label": "s_addressToAmountFunded",
        "offset": 0,
        "slot": "2",
        "type": "t_mapping(t_address,t_uint256)"
      },
      {
        "astId": 70,
        "contract": "contracts/FundMe.sol:FundMe",
        "label": "i_owner",
        "offset": 0,
        "slot": "3",
        "type": "t_address"
      },
      {
        "astId": 73,
        "contract": "contracts/FundMe.sol:FundMe",
        "label": "s_priceFeed",
        "offset": 0,
        "slot": "4",
        "type": "t_contract(AggregatorV3Interface)45"
      }
    ],
    "types": {
      "t_address": {
        "encoding": "inplace",
        "label": "address",
        "numberOfBytes": "20"
      },
      "t_array(t_address)dyn_storage": {
        "base": "t_address",
        "encoding": "dynamic_array",
        "label": "address[]",
        "numberOfBytes": "32"
      },
      "t_contract(AggregatorV3Interface)45": {
        "encoding": "inplace",
        "label": "contract AggregatorV3Interface",
        "numberOfBytes": "20"
      },
      "t_mapping(t_address,t_uint256)": {
        "encoding": "mapping",
        "key": "t_address",
        "label": "mapping(address => uint256)",
        "numberOfBytes": "32",
        "value": "t_uint256"
      },
      "t_uint256": {
        "encoding": "inplace",
        "label": "uint256",
        "numberOfBytes": "32"
      }
    }
  }
}